:020000040000FA
:100000000C94CD1C0C94B8220C948D220C9462227A
:100010000C9437220C940C220C94E1210C94B62100
:100020000C948B210C94FE1C0C94FE1C0C94FE1C56
:100030000C94FE1C0C94FE1C0C94FE1C0C94FE1CD8
:100040000C94FE1C0C9477230C9443230C94FE1CFC
:100050000C94FE1C0C94FE1C0C94FE1C0C94412170
:100060000C94FE1C0C94FE1C0C94FE1C0C94FE1CA8
:100070000C94FE1C0C94FE1C0C94FE1C0C94FE1C98
:100080000C94FE1C0C94FE1C0C94FE1C0C94FE1C88
:100090000C940D230C94E3220C94FE1C0C94FE1C77
:1000A0000C94FE1C0C94FE1C0C94FE1C0C94FE1C68
:1000B0000C94FE1C0C94FE1C0C94FE1C0C94FE1C58
:1000C0000C94FE1C0C94FE1C0C94FE1C0C94FE1C48
:1000D0000C94FE1C0C94FE1C0C94FE1C0C94FE1C38
:1000E0000C94FE1C0C9443260C94BE280C944927B7
:1000F0000C94A8240C9438280C94281D0C94912658
:100100000C94F01F0C94DB250C9450280C94F41FD5
:100110000C9483270C94A6270C94E0270C940F20B2
:100120000C94C4280C94EC1F0C94F9270C94D92738
:100130000C94991F0C9411260C94D3260C94C3256F
:100140000C94A3260C942F260C94CE260C94F12507
:100150000C941E280C947F280C9477240C9415285A
:100160000C94D8260C94F8260C9405200C94642644
:100170000C940B200C9489270C94CB270C94FB1F18
:100180000C94CC280C940C1E0C9465280C94291DFE
:100190000C9417270C9469270C9401200C94B62515
:1001A0000C94BB260C9419200C94F81F0C9409286D
:1001B0000C94791D0C9429270C94C1280C942120AF
:1001C0000C9426280C9490270C942D270C9421270E
:1001D0000C94AE280C9459270C947D260C94C91EBF
:1001E0000C94DD260C94A2280C94B8280C94C728F3
:1001F0000C948A280C9402270C94D1250C94C027C7
:100200000C94BB280C9422280C94E7270C94941F80
:100210000C941C270C94C4270C945D1E0C94BC27D2
:100220000C944D260C94A6280C9431270C94651D33
:100230000C94B5280C94871D0C94CB250C94651F49
:100240000C9459260C94BF1D0C9425270C94132054
:100250000C94CF280C94561D0C9427200C941D2030
:100260000C94AA280C9486280C942B200C94FD2620
:100270000C941A280C94D02700002000230026009C
:1002800029002C002F0032000001000003010601AC
:10029000090100000A0B02090C0D0E0807030401F6
:1002A000000000000000000000000000000000004E
:1002B000000000000000000000000000000012111B
:1002C000100000000000000000000000000000001E
:1002D000000000000000000000000000000000001E
:1002E00000000000000000000000000000D1B1008C
:1002F0000000DAD3C1D7B20000C3D8C4C5B4B3007C
:1003000000A0D6C6D4D2B50000CEC2C8C7D9B600A8
:100310000000CDCAD5B7B80000ACCBC9CFB0B9008A
:1003200000AEAFCCBBD0AD000000A70000BD000008
:1003300000008D00000000000000000000008800A8
:1003400000B100B4B7000000B0AEB2B5B6B89B00C3
:1003500000ABB3ADAAB9000000000000000000002F
:1003600000000000000000000000000000D1A1001B
:100370000000DAD3C1D7C00000C3D8C4C5A4A3000D
:1003800000A0D6C6D4D2A50000CEC2C8C7D9DE0010
:100390000000CDCAD5A6AA0000BCCBC9CFA9A80031
:1003A00000BEBFCCBAD0AD000000A20000AB000080
:1003B00000008D0000000000000000000000880028
:1003C00000B100B4B7000000B0AEB2B5B6B89B0043
:1003D00000ABB3ADAAB900006FD865D7F8DC94D9EB
:1003E000B1DB30F3D8DFE1DB8FF398F3E4F1DDF13B
:1003F000D4F124F231F240F2D7F3E1F3E8F6FDF65E
:1004000068F76EF7E6F757FC20F726F774F76CF2FB
:100410006EF272F276F27FF24EF26AD955F285F2FE
:10042000A5F2CAF217F3BBF39EF361F245DA3DD9A8
:1004300011D9C8D948D8F40320D96AD9DBD96DD8E5
:10044000EBD983E7C8D8AFD812E37AE7D4DA95D8E6
:10045000A4D669D69FDB48D690EB23ECAFEB0A001D
:10046000DEE212D4CDDFFFE28DEEAEEF41E909EF1F
:10047000EAEFF1EF3AF09EF064E7D6E6C5E307E76E
:10048000E5E646E65AE686E691E679C0E779A9E729
:100490007B81E97B68EA7D96EE5054DF464EDF7F34
:1004A000CFEE7F97DE6464DF454EC4464FD24E45A3
:1004B00058D4444154C1494E5055D44445CC444984
:1004C000CD524541C447D2544558D45052A3494E09
:1004D000A343414CCC504C4FD4484C49CE564C4988
:1004E000CE484752B24847D248434F4C4F52BD487E
:1004F000504C4FD4445241D758445241D7485441AC
:10050000C2484F4DC5524F54BD5343414C45BD5356
:10051000484C4F41C454524143C54E4F545241433D
:10052000C54E4F524D41CC494E56455253C5464C8F
:100530004153C8434F4C4F52BD504FD0565441C207
:1005400048494D454DBA4C4F4D454DBA4F4E455219
:10055000D2524553554DC5524543414CCC53544F4F
:1005600052C55350454544BD4C45D4474F54CF52D6
:1005700055CE49C6524553544F52C5A6474F5355C1
:10058000C25245545552CE5245CD53544FD04FCE02
:10059000574149D44C4F41C4534156C54445C650B8
:1005A0004F4BC55052494ED4434F4ED44C4953D46F
:1005B000434C4541D24745D44E45D7544142A854B7
:1005C000CF46CE535043A8544845CE41D44E4FD485
:1005D000535445D0ABADAAAFDE414EC44FD2BEBDE1
:1005E000BC5347CE494ED44142D35553D24652C54F
:1005F0005343524EA85044CC504FD35351D2524E35
:10060000C44C4FC74558D0434FD35349CE5441CE25
:100610004154CE504545CB4C45CE535452A456413F
:10062000CC4153C3434852A44C454654A452494775
:100630004854A44D4944A4004E45585420574954A9
:10064000484F555420464FD253594E5441D85245E5
:100650005455524E20574954484F555420474F53F4
:1006600055C24F5554204F4620444154C1494C4C2B
:100670004547414C205155414E544954D94F564558
:1006800052464C4FD74F5554204F46204D454D4F65
:1006900052D9554E44454627442053544154454D64
:1006A000454ED4424144205355425343524950D4BD
:1006B000524544494D27442041525241D94449565C
:1006C0004953494F4E204259205A4552CF494C4C2C
:1006D0004547414C204449524543D4545950452044
:1006E0004D49534D415443C8535452494E472054E9
:1006F0004F4F204C4F4EC7464F524D554C41205402
:100700004F4F20434F4D504C45D843414E27542026
:10071000434F4E54494E55C5554E444546274420F7
:1007200046554E4354494FCE204552524F52070032
:1007300020494E20000D425245414B0700BAE8E8DF
:10074000E8E8BD0101C981D021A586D00ABD02011A
:100750008585BD03018586DD0301D007A585DD0202
:1007600001F0078A186912AAD0D86020E3D3856DFA
:10077000846E38A596E59B855EA8A597E59CAAE8BA
:1007800098F023A59638E55E8596B003C69738A500
:1007900094E55E8594B008C6959004B196919488CE
:1007A000D0F9B1969194C697C695CAD0F2600A69FD
:1007B00036B035855EBAE45E902E60C4709028D065
:1007C00004C56F902248A2099848B593CA10FA2030
:1007D00084E4A2F768959DE830FA68A868C4709030
:1007E00006D005C56FB00160A24D24D810034CE9B6
:1007F000F220FBDA205ADBBD60D248205CDBE868DF
:1008000010F52083D6A950A0D3203ADBA476C8F0F7
:10081000032019ED20FBDAA2DD202ED586B884B99D
:1008200046D820B100AAF0ECA2FF867690062059A7
:10083000D54C05D8A6AF8669A6B0866A200CDA200A
:1008400059D5840F201AD69044A001B19B855FA58D
:1008500069855EA59C8561A59B88F19B1865698566
:10086000698560A56A69FF856AE59CAA38A59BE54C
:1008700069A8B003E8C66118655E9003C65F18B149
:100880005E9160C8D0F9E65FE661CAD0F2AD0002C1
:10089000F038A573A474856F8470A5698596650F7B
:1008A0008594A46A84979001C884952093D3A55019
:1008B000A4518DFE018CFF01A56DA46E8569846A2B
:1008C000A40FB9FB0188919BD0F82065D6A567A439
:1008D00068855E845F18A001B15ED00BA56985AF05
:1008E000A56A85B04C3CD4A004C8B15ED0FBC898C2
:1008F000655EAAA000915EA55F6900C8915E865EF4
:10090000855F90D2A2808633206AFDE0EF9002A23C
:10091000EFA9009D00028AF00BBDFF01297F9DFF1A
:1009200001CAD0F5A900A2FFA00160200CFD297F1B
:1009300060A6B8CAA004841324D61008686820658D
:10094000D64CD2D7E8BD000224137004C920F0F4BD
:10095000850EC922F074704DC93FD004A9BAD045A4
:10096000C9309004C93C903D84ADA9D0859DA9CFE4
:10097000859EA000840F8886B8CAC8D002E69EE88B
:10098000BD0002C920F0F838F19DF0EEC980D041D9
:10099000050FC9C5D00DBD0102C94EF034C94FF0D5
:1009A00030A9C5A4ADE8C899FB01B9FB01F03938FD
:1009B000E93AF004C949D002851338E978D0868530
:1009C0000EBD0002F0DFC50EF0DBC899FB01E8D0D8
:1009D000F0A6B8E60FB19DC8D002E69E0A90F6B127
:1009E0009DD09DBD000210BB99FD01C6B9A9FF8530
:1009F000B860A567A668A001859B869CB19BF01F87
:100A0000C8C8A551D19B9018F00388D009A550887B
:100A1000D19B900CF00A88B19BAA88B19BB0D718E3
:100A200060D0FDA90085D6A89167C89167A56769C0
:100A300002856985AFA5686900856A85B02097D66B
:100A4000A900D02AA573A474856F8470A569A46ACF
:100A5000856B846C856D846E2049D8A2558652685A
:100A6000A868A2F89A489848A900857A8514601861
:100A7000A56769FF85B8A56869FF85B960900AF028
:100A800008C9C9F004C92CD0E5200CDA201AD620F8
:100A9000B700F010C9C9F004C92CD08420B10020DF
:100AA0000CDAD0CA6868A5500551D006A9FF855058
:100AB0008551A001B19BF0442058D820FBDAC8B181
:100AC0009BAAC8B19BC551D004E450F002B02D845C
:100AD000852024EDA920A485297F205CDBA524C9DD
:100AE00021900720FBDAA9058524C8B19BD01DA859
:100AF000B19BAAC8B19B869B859CD0B6A90D205CF2
:100B0000DB4CD2D7C8D002E69EB19D6010CC38E94C
:100B10007FAA8485A0D0849DA0CF849EA0FFCAF028
:100B200007202CD710FB30F6A920205CDB202CD727
:100B30003005205CDBD0F6205CDBA920D098A980B2
:100B400085142046DA2065D3D0058A690FAA9A68F1
:100B500068A90920D6D320A3D9189865B848A5B9A3
:100B6000690048A57648A57548A9C120C0DE206A5D
:100B7000DD2067DDA5A2097F259E859EA9AFA0D7B0
:100B8000855E845F4C20DEA913A0E920F9EA20B736
:100B900000C9C7D00620B1002067DD2082EB2015F8
:100BA000DEA58648A58548A98148BA86F82058D888
:100BB000A5B8A4B9A676E8F0048579847AA000B136
:100BC000B8D057A002B1B818F034C8B1B88575C80C
:100BD000B1B885769865B885B89002E6B924F21068
:100BE00014A676E8F00FA923205CDBA675A5762075
:100BF00024ED2057DB20B1002028D84CD2D7F0625A
:100C0000F02DE9809011C940B0140AA8B901D0486C
:100C1000B900D0484CB1004C46DAC93AF0BF4CC9D3
:100C2000DE38A567E901A468B00188857D847E600F
:100C3000AD00C0C983F001602053D5A2FF24D810B5
:100C4000034CE9F2C903B00118D03CA5B8A4B9A679
:100C500076E8F00C8579847AA575A4768577847812
:100C60006868A95DA0D390034C31D44C3CD4D01714
:100C7000A2D2A47AD0034C12D4A57985B884B9A5A0
:100C800077A478857584766038A5AFE5678550A52B
:100C9000B0E568855120F0D820CDFE2001D94CCD9B
:100CA000FE20F0D820FDFE18A56765508569A5686F
:100CB0006551856AA55285D62001D920FDFE24D62E
:100CC00010034C65D64CF2D4A950A000853C843D5D
:100CD000A952853E843F84D660A567A468853C847C
:100CE0003DA569A46A853E843F6008C67628D00386
:100CF0004C65D6206CD64C35D9A90320D6D3A5B9DE
:100D000048A5B848A57648A57548A9B04820B700B9
:100D1000203ED94CD2D7200CDA20A6D9A576C551D1
:100D2000B00B983865B8A6B99007E8B004A567A6D7
:100D300068201ED6901EA59BE90185B8A59CE900F8
:100D400085B960D0FDA9FF85852065D39AC9B0F02B
:100D50000BA2162CA25A4C12D44CC9DE6868C042B1
:100D6000F03B85756885766885B86885B920A3D914
:100D7000981865B885B89002E6B960A23A2CA2002E
:100D8000860DA000840EA50EA60D850D860EB1B8A9
:100D9000F0E8C50EF0E4C8C922D0F3F0E96868684D
:100DA00060207BDD20B700C9ABF005A9C420C0DE00
:100DB000A59DD00520A6D9F0B720B700B0034C3EC2
:100DC000D94C28D820F8E648C9B0F004C9ABD0897E
:100DD000C6A1D004684C2AD820B100200CDAC92C56
:100DE000F0EE6860A20086508651B0F7E92F850DBD
:100DF000A551855EC919B0D4A5500A265E0A265EA3
:100E000065508550A55E6551855106502651A55007
:100E1000650D85509002E65120B1004C12DA20E3B6
:100E2000DF85858486A9D020C0DEA51248A511489B
:100E3000207BDD682A206DDDD0186810122072EB4F
:100E4000200CE1A000A5A09185C8A5A19185604CCA
:100E500027EB68A002B1A0C5709017D00788B1A099
:100E6000C56F900EA4A1C46A9008D00DA5A0C56955
:100E7000B007A5A0A4A14CB7DAA000B1A020D5E38B
:100E8000A58CA48D85AB84AC20D4E5A99DA000855C
:100E90008C848D2035E6A000B18C9185C8B18C91F1
:100EA00085C8B18C918560203DDB20B700F024F02F
:100EB00029C9C0F039C9C318F034C92C18F01CC9AD
:100EC0003BF044207BDD241130DD2034ED20E7E3CE
:100ED0004CCFDAA90D205CDB49FF60A524C918902E
:100EE0000520FBDAD021691029F08524901908200B
:100EF000F5E6C929F0034CC9DE289007CA8AE52423
:100F00009005AAE8CAD00620B1004CD7DA2057DBFA
:100F1000D0F220E7E32000E6AAA000E8CAF0BBB1C7
:100F20005E205CDBC8C90DD0F32000DB4C44DBA99C
:100F3000202CA93F0980C9A0900205F320EDFD29CE
:100F40007F48A5F120A8FC6860A515F0123004A028
:100F5000FFD004A57BA47C857584764CC9DE68240B
:100F6000D81005A2FE4CE9F2A9EFA0DC203ADBA5DF
:100F700079A47A85B884B9602006E3A201A002A909
:100F8000008D0102A94020EBDB60C922D00E208138
:100F9000DEA93B20C0DE203DDB4CC7DB205ADB2036
:100FA00006E3A92C8DFF01202CD5AD0002C903D08A
:100FB000104C63D8205ADB4C2CD5A67DA47EA99872
:100FC0002CA9008515867F848020E3DF85858486B3
:100FD000A5B8A4B985878488A67FA48086B884B97B
:100FE00020B700D01E2415500E200CFD297F8D0047
:100FF00002A2FFA001D008307F205ADB20DCDB8674
:10100000B884B920B1002411103124155009E886A4
:10101000B8A900850DF00C850DC922F007A93A8505
:101020000DA92C18850EA5B8A4B969009001C82097
:10103000EDE3203DE7207BDA4C72DC48AD0002F0A6
:101040003068204AECA5122063DA20B700F007C907
:101050002CF0034C71DBA5B8A4B9857F8480A587EB
:10106000A48885B884B920B700F03320BEDE4CF1E7
:10107000DBA515D0CC4C86DB20A3D9C8AAD012A200
:101080002AC8B1B8F05FC8B1B8857BC8B1B8C88507
:101090007CB1B8AA2098D9E083D0DD4C2BDCA57FA9
:1010A000A480A61510034C53D8A000B17FF007A967
:1010B000DFA0DC4C3ADB603F4558545241204947A1
:1010C0004E4F5245440D003F5245454E5445520D3A
:1010D00000D004A000F00320E3DF8585848620652E
:1010E000D3F004A200F0699AE8E8E8E88AE8E8E8C2
:1010F000E8E8E88660A00120F9EABABD090185A206
:10110000A585A48620BEE72027EBA00120B4EBBA7A
:1011100038FD0901F017BD0F018575BD10018576F9
:10112000BD120185B8BD110185B94CD2D78A6911AC
:10113000AA9A20B700C92CD0F120B10020FFDC20F2
:101140007BDD18243824113003B00360B0FDA2A366
:101150004C12D4A6B8D002C6B9C6B8A20024488A98
:1011600048A90120D6D32060DEA900858920B700D8
:1011700038E9CF9017C903B013C9012A490145893D
:10118000C5899061858920B1004C98DDA689D02C55
:10119000B07B690790776511D0034C97E569FF85AF
:1011A0005E0A655EA868D9B2D0B067206ADD4820C3
:1011B000FDDD68A4871017AAF056D05F46118A2A71
:1011C000A6B8D002C6B9C6B8A01B8589D0D7D9B2F7
:1011D000D0B04890D9B9B4D048B9B3D0482010DEC7
:1011E000A5894C86DD4CC9DEA5A2BEB2D0A8688513
:1011F0005EE65E68855F98482072EBA5A148A5A0D1
:1012000048A59F48A59E48A59D486C5E00A0FF6824
:10121000F023C964F003206ADD8487684A85166874
:1012200085A56885A66885A76885A86885A9688555
:10123000AA45A285ABA59D60A900851120B100B08B
:10124000034C4AEC207DE0B064C92EF0F4C9C9F02B
:1012500055C9C8F0E7C922D00FA5B8A4B969009054
:1012600001C820E7E34C3DE7C9C6D010A018D0382C
:10127000A59DD003A0012CA0004C01E3C9C2D0035E
:101280004C54E3C9D290034C0CDF20BBDE207BDD45
:10129000A9292CA9282CA92CA000D1B8D0034CB185
:1012A00000A2104C12D4A01568684CD7DD20E3DFF3
:1012B00085A084A1A611F005A20086AC60A612103C
:1012C0000DA000B1A0AAC8B1A0A88A4CF2E24CF9C6
:1012D000EA20B10020ECF18AA4F02071F8A82001E6
:1012E000E34CB8DEC9D7F0E90A48AA20B100E0CF44
:1012F000902020BBDE207BDD20BEDE206CDD68AAD6
:10130000A5A148A5A0488A4820F8E668A88A484CC4
:101310003FDF20B2DE68A8B9DCCF8591B9DDCF858B
:10132000922090004C6ADDA5A5059DD00BA5A5F0E7
:1013300004A59DD003A0002CA0014C01E3206DDD8D
:10134000B013A5AA097F25A685A6A9A5A00020B24D
:10135000EBAA4CB0DFA9008511C6892000E6859D67
:10136000869E849FA5A8A4A92004E686A884A9AA8D
:1013700038E59DF008A9019004A69DA9FF85A2A0CB
:10138000FFE8C8CAD007A6A2300F18900CB1A8D1A8
:101390009EF0EFA2FFB002A201E88A2A2516F00211
:1013A000A9014C93EB20FBE6201EFB4C01E320BE81
:1013B000DEAA20E8DF20B700D0F460A20020B7004A
:1013C0008610858120B700207DE0B0034CC9DEA2E5
:1013D00000861186124C07E04C28F14C3CD40020CA
:1013E000B1009005207DE0900BAA20B10090FB2079
:1013F0007DE0B0F6C924D006A9FF8511D010C9251B
:10140000D013A51430C6A9808512058185818A096B
:1014100080AA20B1008682380514E928D0034C1E2A
:10142000E12414300270F7A9008514A569A66AA00A
:1014300000869C859BE46CD004C56BF022A581D10D
:101440009BD008A582C8D19BF06C8818A59B690722
:1014500090E1E8D0DCC9419005E95B38E9A5606816
:1014600048C9D7D00FBABD0201C9DED007A99AA0DA
:10147000E0600000A56BA46C859B849CA56DA46EA8
:10148000859684971869079001C885948495209360
:10149000D3A594A495C8856B846CA000A581919B6D
:1014A000C8A582919BA900C8919BC8919BC8919B9C
:1014B000C8919BC8919BA59B186902A49C9001C8E8
:1014C0008583848460A50F0A6905659BA49C9001AF
:1014D000C885948495609080000020B1002067DD6D
:1014E000A5A2300DA59DC9909009A9FEA0E020B24B
:1014F000EBD07E4CF2EBA514D047A510051248A501
:101500001148A0009848A58248A581482002E168BA
:10151000858168858268A8BABD020148BD0101487D
:10152000A5A09D0201A5A19D0101C820B700C92C5D
:10153000F0D2840F20B8DE688511688512297F8576
:1015400010A66BA56C869B859CC56ED004E46DF0DF
:101550003FA000B19BC8C581D006A582D19BF016E3
:10156000C8B19B18659BAAC8B19B659C90D7A26B1C
:101570002CA2354C12D4A278A510D0F7A514F002F5
:10158000386020EDE0A50FA004D19BD0E14C4BE2E8
:10159000A514F005A22A4C12D420EDE020E3D3A933
:1015A00000A885AEA205A581919B1001CAC8A5829D
:1015B000919B1002CACA86ADA50FC8C8C8919BA24C
:1015C0000BA9002410500868186901AA686900C8AE
:1015D000919BC88A919B20ADE286AD85AEA45EC684
:1015E0000FD0DC6595B05D8595A88A65949003C899
:1015F000F05220E3D3856D846EA900E6AEA4ADF071
:1016000005889194D0FBC695C6AED0F5E69538A571
:101610006DE59BA002919BA56EC8E59C919BA510D2
:10162000D062C8B19B850FA90085AD85AEC868AAF8
:1016300085A06885A1D19B900ED006C88AD19B90C9
:10164000074C96E14C10D4C8A5AE05AD18F00A20A1
:10165000ADE28A65A0AA98A45E65A186ADC60FD04A
:10166000CA85AEA205A5811001CAA5821002CACA08
:101670008664A90020B6E28A65948583986595857D
:1016800084A8A58360845EB19B856488B19B8565D1
:10169000A9108599A200A0008A0AAA982AA8B0A435
:1016A00006AD26AE900B188A6564AA986565A8B049
:1016B00093C699D0E360A511F0032000E62084E4EE
:1016C00038A56FE56DA8A570E56EA2008611859E10
:1016D000849FA2904C9BEBA424A90038F0ECA67642
:1016E000E8D0A1A2952CA2E04C12D42041E3200620
:1016F000E320BBDEA980851420E3DF206ADD20B86B
:10170000DEA9D020C0DE48A58448A58348A5B948F5
:10171000A5B8482095D94CAFE3A9C220C0DE098006
:10172000851420EADF858A848B4C6ADD2041E3A59D
:101730008B48A58A4820B2DE206ADD68858A6885E4
:101740008BA002B18A8583AAC8B18AF0998584C822
:10175000B183488810FAA484202BEBA5B948A5B81A
:1017600048B18A85B8C8B18A85B9A58448A5834897
:101770002067DD68858A68858B20B700F0034CC937
:10178000DE6885B86885B9A00068918A68C8918AC2
:1017900068C8918A68C8918A68C8918A60206ADDA1
:1017A000A0002036ED6868A9FFA000F012A6A0A452
:1017B000A1868C848D2052E4869E849F859D60A2A4
:1017C00022860D860E85AB84AC859E849FA0FFC8C3
:1017D000B1ABF00CC50DF004C50ED0F3C922F00179
:1017E00018849D9865AB85ADA6AC9001E886AEA542
:1017F000ACF004C902D00B9820D5E3A6ABA4AC2072
:10180000E2E5A652E05ED005A2BF4C12D4A59D959C
:1018100000A59E9501A59F9502A00086A084A188A1
:1018200084118653E8E8E886526046134849FF3839
:10183000656FA470B00188C46E9011D004C56D901E
:101840000B856F847085718472AA6860A24DA513A0
:1018500030B82084E4A980851368D0D0A673A5741D
:10186000866F8570A000848BA56DA66E859B869C77
:10187000A955A200855E865FC552F0052023E5F0DC
:10188000F7A907858FA569A66A855E865FE46CD097
:1018900004C56BF0052019E5F0F385948695A9033E
:1018A000858FA594A695E46ED007C56DD0034C62D4
:1018B000E5855E865FA000B15EAAC8B15E08C8B1CA
:1018C0005E65948594C8B15E659585952810D38A28
:1018D00030D0C8B15EA0000A6905655E855E9002E1
:1018E000E65FA65FE495D004C594F0BA2023E5F046
:1018F000F3B15E3035C8B15E1030C8B15EF02BC8B0
:10190000B15EAAC8B15EC5709006D01EE46FB01A71
:10191000C59C9016D004E49B9010869B859CA55E88
:10192000A65F858A868BA58F8591A58F18655E85B4
:101930005E9002E65FA65FA00060A68BF0F7A5911F
:1019400029044AA88591B18A659B8596A59C690062
:101950008597A56FA67085948695209AD3A491C883
:10196000A594918AAAE695A595C8918A4C88E4A584
:10197000A148A5A0482060DE206CDD6885AB6885A5
:10198000ACA000B1AB1871A09005A2B04C12D4204D
:10199000D5E320D4E5A58CA48D2004E620E6E5A5BA
:1019A000ABA4AC2004E6202AE44C95DDA000B1AB4A
:1019B00048C8B1ABAAC8B1ABA868865E845FA8F07E
:1019C0000A4888B15E917198D0F868186571857180
:1019D0009002E67260206CDDA5A0A4A1855E845F04
:1019E0002035E608A000B15E48C8B15EAAC8B15E65
:1019F000A86828D013C470D00FE46FD00B481865C6
:101A00006F856F9002E67068865E845F60C454D014
:101A10000CC553D0088552E9038553A0006020FB14
:101A2000E68A48A90120DDE368A000919E68684C21
:101A30002AE420B9E6D18C989004B18CAA98488AFF
:101A40004820DDE3A58CA48D2004E668A86818650D
:101A50005E855E9002E65F9820E6E54C2AE420B9B8
:101A6000E618F18C49FF4C60E6A9FF85A120B7007C
:101A7000C929F00620BEDE20F8E620B9E6CA8A4869
:101A800018A200F18CB0B849FFC5A190B3A5A1B0D0
:101A9000AF20B8DE68A8688591686868AA68858CF8
:101AA00068858DA591489848A0008AF01D6020DCCB
:101AB000E64C01E320FDE5A2008611A86020DCE6EB
:101AC000F008A000B15EA84C01E34C99E120B10000
:101AD0002067DD2008E1A6A0D0F0A6A14CB7002029
:101AE000DCE6D0034C4EE8A6B8A4B986AD84AEA619
:101AF0005E86B818655E8560A65F86B99001E88647
:101B000061A000B16048A900916020B700204AECB4
:101B100068A0009160A6ADA4AE86B884B9602067C5
:101B2000DD2052E720BEDE4CF8E6A59DC991B09AB3
:101B300020F2EBA5A0A4A18450855160A55048A532
:101B400051482052E7A000B150A8688551688550DF
:101B50004C01E32046E78AA0009150602046E786CA
:101B600085A20020B700F003204CE78686A000B1D4
:101B70005045862585F0F860A964A0EE4CBEE720AC
:101B8000E3E9A5A249FF85A245AA85ABA59D4CC165
:101B9000E720F0E8903C20E3E9D0034C53EBA6ACFF
:101BA0008692A2A5A5A5A8F0CE38E59DF0249012B6
:101BB000849DA4AA84A249FF6900A0008492A29DEA
:101BC000D004A00084ACC9F930C7A8A5AC56012048
:101BD00007E924AB1057A09DE0A5F002A0A5384965
:101BE000FF659285ACB90400F50485A1B90300F541
:101BF0000385A0B90200F502859FB90100F50185B2
:101C00009EB003209EE8A0009818A69ED04AA69FEA
:101C1000869EA6A0869FA6A186A0A6AC86A184AC1F
:101C20006908C920D0E4A900859D85A260659285D8
:101C3000ACA5A165A985A1A5A065A885A0A59F655E
:101C4000A7859FA59E65A6859E4C8DE8690106AC7B
:101C500026A126A0269F269E10F238E59DB0C749F2
:101C6000FF6901859D900EE69DF042669E669F6627
:101C7000A066A166AC60A5A249FF85A2A59E49FF0A
:101C8000859EA59F49FF859FA5A049FF85A0A5A189
:101C900049FF85A1A5AC49FF85ACE6ACD00EE6A115
:101CA000D00AE6A0D006E69FD002E69E60A2454C90
:101CB00012D4A261B40484ACB4039404B4029403B7
:101CC000B4019402A4A49401690830E8F0E6E9089C
:101CD000A8A5ACB01416019002F601760176017643
:101CE00002760376046AC8D0EC1860810000000018
:101CF000037F5E56CB7980139B0B648076389316F6
:101D00008238AA3B20803504F334813504F33480D3
:101D10008000000080317217F82082EBF00210037F
:101D20004C99E1A59DE97F48A980859DA92DA0E951
:101D300020BEE7A932A0E92066EAA913A0E920A7FE
:101D4000E7A918A0E9205CEFA937A0E920BEE76861
:101D500020D5ECA93CA0E920E3E9D0034CE2E9203E
:101D60000EEAA9008562856385648565A5AC20B00F
:101D7000E9A5A120B0E9A5A020B0E9A59F20B0E980
:101D8000A59E20B5E94CE6EAD0034CDAE84A098082
:101D9000A8901918A56565A98565A56465A88564D9
:101DA000A56365A78563A56265A6856266626663AD
:101DB0006664666566AC984AD0D660855E845FA02E
:101DC00004B15E85A988B15E85A888B15E85A788C3
:101DD000B15E85AA45A285ABA5AA098085A688B172
:101DE0005E85A5A59D60A5A5F01F18659D90043092
:101DF0001D182C10146980859DD0034C52E8A5ABAA
:101E000085A260A5A249FF300568684C4EE84CD514
:101E1000E82063EBAAF010186902B0F2A20086ABCA
:101E200020CEE7E69DF0E76084200000002063EB11
:101E3000A950A0EAA20086AB20F9EA4C69EA20E3A7
:101E4000E9F0762072EBA90038E59D859D200EEA29
:101E5000E69DF0BAA2FCA901A4A6C49ED010A4A736
:101E6000C49FD00AA4A8C4A0D004A4A9C4A1082ACD
:101E70009009E89565F0321034A90128B00E06A942
:101E800026A826A726A6B0E630CE10E2A8A5A9E58A
:101E9000A185A9A5A8E5A085A8A5A7E59F85A7A5D3
:101EA000A6E59E85A6984CA6EAA940D0CE0A0A0AC5
:101EB0000A0A0A85AC284CE6EAA2854C12D4A5622F
:101EC000859EA563859FA56485A0A56585A14C2EEB
:101ED000E8855E845FA004B15E85A188B15E85A0BF
:101EE00088B15E859F88B15E85A20980859E88B194
:101EF0005E859D84AC60A2982CA293A000F004A6FD
:101F000085A4862072EB865E845FA004A5A1915E05
:101F100088A5A0915E88A59F915E88A5A2097F25CE
:101F20009E915E88A59D915E84AC60A5AA85A2A2C3
:101F300005B5A4959CCAD0F986AC602072EBA206C8
:101F4000B59C95A4CAD0F986AC60A59DF0FB06AC03
:101F500090F720C6E8D0F24C8FE8A59DF009A5A225
:101F60002AA9FFB002A901602082EB859EA9008505
:101F70009FA288A59E49FF2AA90085A185A0869DCC
:101F800085AC85A24C29E846A26085608461A000EA
:101F9000B160C8AAF0C4B16045A230C2E49DD021AE
:101FA000B1600980C59ED019C8B160C59FD012C864
:101FB000B160C5A0D00BC8A97FC5ACB160E5A1F0E8
:101FC00028A5A2900249FF4C88EBA59DF04A38E96C
:101FD000A024A21009AAA9FF85A420A4E88AA29D92
:101FE000C9F9100620F0E884A460A8A5A2298046BB
:101FF0009E059E859E2007E984A460A59DC9A0B08A
:102000002020F2EB84ACA5A284A249802AA9A08555
:102010009DA5A1850D4C29E8859E859F85A085A15C
:10202000A860A000A20A9499CA10FB900FC92DD0F5
:102030000486A3F004C92BD00520B100905BC92E03
:10204000F02EC945D03020B1009017C9C9F00EC993
:102050002DF00AC9C8F008C92BF004D007669C20EF
:10206000B100905C249C100EA90038E59A4CA0ECBD
:10207000669B249B50C3A59A38E599859AF0121067
:10208000092055EAE69AD0F9F0072039EAC69AD035
:10209000F9A5A33001604CD0EE48249B1002E699CC
:1020A0002039EA6838E93020D5EC4C61EC482063EF
:1020B000EB682093EBA5AA45A285ABA69D4CC1E792
:1020C000A59AC90A9009A964249C30114CD5E80A44
:1020D0000A18659A0A18A00071B838E930859A4C38
:1020E00087EC9B3EBC1FFD9E6E6B27FD9E6E6B2892
:1020F00000A958A0D32031EDA576A675859E869FB0
:10210000A2903820A0EB2034ED4C3ADBA001A92DA1
:102110008824A21004C899FF0085A284ADC8A93004
:10212000A69DD0034C57EEA900E080F002B009A9AB
:1021300014A0ED207FE9A9F78599A90FA0ED20B2A1
:10214000EBF01E1012A90AA0ED20B2EBF002100E67
:102150002039EAC699D0EE2055EAE699D0DC20A0D5
:10216000E720F2EBA201A59918690A3009C90BB062
:102170000669FFAAA90238E902859A86998AF002BF
:102180001013A4ADA92EC899FF008AF006A930C883
:1021900099FF0084ADA000A280A5A118796CEE85FE
:1021A000A1A5A0796BEE85A0A59F796AEE859FA574
:1021B0009E7969EE859EE8B00410DE300230DA8A3E
:1021C000900449FF690A692FC8C8C8C88483A4ADB0
:1021D000C8AA297F99FF00C699D006A92EC899FFE1
:1021E0000084ADA4838A49FF2980AAC024D0AAA470
:1021F000ADB9FF0088C930F0F8C92EF001C8A92B8D
:10220000A69AF02E1008A90038E59AAAA92D9901DE
:1022100001A9459900018AA22F38E8E90AB0FB69B3
:102220003A9903018A990201A900990401F00899D9
:10223000FF00A900990001A900A001608000000032
:1022400000FA0A1F0000989680FFF0BDC0000186CA
:10225000A0FFFFD8F0000003E8FFFFFF9C00000094
:102260000AFFFFFFFF2063EBA964A0EE20F9EAF06C
:1022700070A5A5D0034C50E8A28AA000202BEBA5A6
:10228000AA100F2023ECA98AA00020B2EBD003985B
:10229000A40D2055EB98482041E9A98AA000207F91
:1022A000E92009EF684A900AA59DF006A5A249FF1A
:1022B00085A2608138AA3B29077134583E567416AE
:1022C0007EB31B772FEEE3857A1D841C2A7C63592D
:1022D000580A7E75FDE7C680317218108100000033
:1022E00000A9DBA0EE207FE9A5AC69509003207A1D
:1022F000EB85922066EBA59DC9889003202BEA20F0
:1023000023ECA50D186981F0F338E90148A205B561
:10231000A5B49D959D94A5CA10F5A59285AC20AA5B
:10232000E720D0EEA9E0A0EE2072EFA90085AB680F
:102330002010EA6085AD84AE2021EBA993207FE9CF
:102340002076EFA993A0004C7FE985AD84AE201ED6
:10235000EBB1AD85A3A4ADC898D002E6AE85ADA41F
:10236000AE207FE9A5ADA4AE1869059001C885AD82
:1023700084AE20BEE7A998A000C6A3D0E46098353B
:10238000447A6828B1462082EBAA3018A9C9A00077
:1023900020F9EA8AF0E7A9A6A0EF207FE9A9AAA080
:1023A000EF20BEE7A6A1A59E85A1869EA90085A2D5
:1023B000A59D85ACA980859D202EE8A2C9A0004CD2
:1023C0002BEBA966A0F020BEE72063EBA96BA0F081
:1023D000A6AA205EEA2063EB2023ECA90085AB20AF
:1023E000AAE7A970A0F020A7E7A5A248100D20A099
:1023F000E7A5A23009A51649FF851620D0EEA970E1
:10240000A0F020BEE768100320D0EEA975A0F04C24
:102410005CEF2021EBA900851620F1EFA28AA00035
:1024200020E7EFA993A00020F9EAA90085A2A5164C
:102430002062F0A98AA0004C66EA484C23F081494A
:102440000FDAA283490FDAA27F000000000584E6BC
:102450001A2D1B862807FBF8879968890187233581
:10246000DFE186A55DE72883490FDAA2A6D3C1C8BC
:10247000D4C8D5C4CECAA5A248100320D0EEA59DCD
:1024800048C9819007A913A0E92066EAA9CEA0F067
:10249000205CEF68C9819007A966A0F020A7E768D3
:1024A00010034CD0EE600B76B383BDD3791EF4A637
:1024B000F57B83FCB0107C0C1F67CA7CDE53CBC15C
:1024C0007D1464704C7DB7EA517A7D6330887E7EDE
:1024D0009244993A7E4CCC91C77FAAAAAA13810054
:1024E000000000E6B8D002E6B9AD60EAC93AB00A29
:1024F000C920F0EF38E93038E9D060804FC7525832
:10250000A2FF8676A2FB9AA928A0F1850184028504
:102510000484052073F2A94C850085038590850A03
:10252000A999A0E1850B840CA21CBD0AF195B08687
:10253000F1CAD0F686F28A85A4855448A903858F0E
:1025400020FBDAA9018DFD018DFC01A2558652A95F
:1025500000A00885508451A000E651B15049FF9178
:1025600050D150D00849FF9150D150F0ECA450A563
:102570005129F084738574846F8570A200A0088649
:10258000678468A00084D6989167E667D002E66801
:10259000A567A46820E3D3204BD6A93AA0DB850425
:1025A0008405A93CA0D4850184026C01002067DD6C
:1025B0002052E76C500020F8E68A4C8BFE20F8E6AB
:1025C0008A4C95FE20F8E6E030B01386F0A92C2066
:1025D000C0DE20F8E6E030B005862C862D604C99F0
:1025E000E120ECF1E4F0B008A5F0852C852D86F013
:1025F000A9C520C0DE20F8E6E030B0E26020ECF1B2
:102600008AA4F0C028B0D74C00F82009F28AA42C84
:10261000C028B0CAA4F04C19F82009F28AA8C02832
:10262000B0BCA5F04C28F820F8E68A4C64F820F8F5
:10263000E6CA8AC918B0A74C5BFB20F8E68A49FFB6
:10264000AAE886F16038901866F260A9FFD002A966
:102650003FA200853286F360A97FA240D0F52067B3
:10266000DD2052E7A550C56DA551E56EB0034C10B5
:10267000D4A5508573856FA55185748570602067DA
:10268000DD2052E7A550C573A551E574B0E0A55013
:10269000C569A551E56A90D6A5508569A551856A99
:1026A0004C6CD6A9AB20C0DEA5B885F4A5B985F5DC
:1026B0003866D8A57585F6A57685F720A6D94C98F5
:1026C000D986DEA6F886DFA57585DAA57685DBA531
:1026D0007985DCA57A85DDA5F485B8A5F585B9A54C
:1026E000F68575A5F7857620B700203ED94CD2D760
:1026F000A5DA8575A5DB8576A5DC85B8A5DD85B968
:10270000A6DF9A4CD2D74CC9DEB0FBA6AF8669A62D
:10271000B0866A200CDA201AD6A59B8560A59C8518
:1027200061A92C20C0DE200CDAE650D002E6512050
:102730001AD6A59BC560A59CE561B00160A000B15B
:102740009B9160E69BD002E69CE660D002E661A524
:1027500069C59BA56AE59CB0E6A661A460D001CAE4
:1027600088866A84694CF2D4AD56C0AD53C04C40E3
:10277000FBAD54C04C39FB20D9F7A003B19BAA880C
:10278000B19BE901B001CA8550865120CDFE20BC25
:10279000F74CCDFE20D9F720FDFEA002B19BC5501D
:1027A000C8B19BE551B0034C10D420BCF74CFDFEE2
:1027B0002C55C02C52C0A940D008A9202C54C02CA4
:1027C00053C085E6AD57C0AD50C0A900851CA5E635
:1027D000851BA000841AA51C911A207EF4C8D0F68F
:1027E000E61BA51B291FD0EE6085E286E084E14848
:1027F00029C085264A4A052685266885270A0A0AA9
:1028000026270A26270A6626A527291F05E68527E3
:102810008AC000F005A0236904C8E907B0FB84E57D
:10282000AABDB9F48530984AA5E4851CB02860207B
:1028300011F4A51C5126253051269126601023A5A0
:10284000304AB00549C0853060881002A027A9C071
:10285000853084E5A51C0AC9C01006A51C497F85E2
:102860001C60A5300A498030DDA981C8C02890E0ED
:10287000A000B0DC18A5D12904F025A97F253031AE
:1028800026D019E6EAA97F2530101118A5D1290410
:10289000F00EB126451C2530D002E6EA51269126DD
:1028A000A5D165D32903C9026AB092303018A52793
:1028B0002CB9F5D0220626B01A2CCDF4F005691FEC
:1028C00038B012692348A52669B0B00269F08526A0
:1028D00068B002691F662669FC85276018A527690C
:1028E000042CB9F5D0F30626901869E0182C08F5E9
:1028F000F012A526695049F0F00249F08526A5E6B8
:10290000900269E0662690D148A90085E085E185BE
:10291000E2684838E5E0488AE5E185D3B00A6849CD
:10292000FF690148A900E5D385D185D56885D085A3
:10293000D46885E086E19818E5E2900449FF69FED5
:1029400085D284E266D338E5D0AAA9FFE5D1851DFA
:10295000A4E5B0050A2065F438A5D465D285D4A5D0
:10296000D5E90085D5B126451C253051269126E8AC
:10297000D004E61DF062A5D3B0DA20D3F418A5D4B4
:1029800065D085D4A5D565D150D98182848890A0A1
:10299000C01CFFFEFAF4ECE1D4C5B4A18D78614906
:1029A0003118FFA5260AA52729032A05260A0A0A9F
:1029B00085E2A5274A4A290705E285E2A5E50A65D9
:1029C000E50AAACAA530297FE84AD0FC85E18A1821
:1029D00065E59002E6E185E060861A841BAA4A4A12
:1029E0004A4A85D38A290FAABCBAF584D0490FAACE
:1029F000BCBBF5C884D2A4E5A20086EAA11A85D1A1
:102A0000A28086D486D5A6E7A5D43865D085D49093
:102A10000420B3F418A5D565D285D5900320B4F46D
:102A2000CAD0E5A5D14A4A4AD0D4E61AD002E61B5C
:102A3000A11AD0CA60861A841BAA4A4A4A4A85D378
:102A40008A290FAABCBAF584D0490FAABCBBF5C825
:102A500084D2A4E5A20086EAA11A85D1A28086D4F8
:102A600086D5A6E7A5D43865D085D49004209CF4FB
:102A700018A5D565D285D59003209DF4CAD0E5A5CB
:102A8000D14A4A4AD0D4E61AD002E61BA11AD0CACB
:102A9000602067DD2052E7A451A650C0019006D007
:102AA0001DE018B0198A489848A92C20C0DE20F8EB
:102AB000E6E0C0B009869D68A868AAA59D604C069E
:102AC000F220F8E6E008B0F6BDF6F685E460002AEC
:102AD000557F80AAD5FFC9C1F00D20B9F62057F463
:102AE00020B700C9C1D0E620C0DE20B9F6849DA879
:102AF0008AA69D203AF54C08F720F8E686F9602072
:102B0000F8E686E76020F8E6A5E8851AA5E9851BC2
:102B10008AA200C11AF002B0A50A9003E61B18A809
:102B2000B11A651AAAC8B11A65E9851B861A20B7B9
:102B300000C9C5D00920C0DE20B9F62011F4A5F9DE
:102B400060202DF74C05F6202DF74C61F6A9008585
:102B50003D853FA050843CC8843E20FDFE18A573EF
:102B6000AACA863EE55048A574A8E8D00188843FEB
:102B7000E551C56E9002D0034C10D48574857085E4
:102B80003D85E96885E88573856F853C20FAFCA959
:102B9000034C02FF18A59B6550853EA59C65518599
:102BA0003FA004B19B20EFE0A594853CA595853D11
:102BB00060A940851420E3DFA90085144CF0D820DB
:102BC000F8E6CA8AC928900AE9284820FBDA684C46
:102BD000ECF7852460CBD2D74A082047F828A90F04
:102BE000900269E0852EB1264530252E512691268A
:102BF000602000F8C42CB011C8200EF890F66901CE
:102C0000482000F868C52D90F560A02FD002A027BD
:102C1000842DA027A90085302028F88810F6604868
:102C20004A2903090485276829189002697F8526A7
:102C30000A0A0526852660A530186903290F853004
:102C40000A0A0A0A05308530604A082047F8B1268A
:102C50002890044A4A4A4A290F60A63AA43B209683
:102C6000FD2048F9A13AA84A90096AB010C9A2F01B
:102C70000C29874AAABD62F92079F8D004A080A95E
:102C800000AABDA6F9852E2903852F98298FAA9819
:102C9000A003E08AF00B4A90084A4A092088D0FA3B
:102CA000C888D0F260FFFFFF2082F848B13A20DAEE
:102CB000FDA201204AF9C42FC890F1A203C00490DC
:102CC000F268A8B9C0F9852CB900FA852DA900A031
:102CD00005062D262C2A88D0F869BF20EDFDCAD024
:102CE000EC2048F9A42FA206E003F01C062E900E5B
:102CF000BDB3F920EDFDBDB9F9F00320EDFDCAD05B
:102D0000E7608830E720DAFDA52EC9E8B13A90F2F5
:102D10002056F9AAE8D001C89820DAFD8A4CDAFDDD
:102D2000A203A9A020EDFDCAD0F86038A52FA43BCE
:102D3000AA100188653A9001C860042054300D80C3
:102D40000490032254330D800490042054330D80EA
:102D500004900420543B0D800490002244330DC89D
:102D60004400112244330DC844A9012244330D808C
:102D70000490012244330D8004902631879A00216B
:102D800081820000594D9192864A859DACA9ACA3E1
:102D9000A8A4D900D8A4A4001C8A1C235D8B1BA165
:102DA0009D8A1D239D8B1DA1002919AE69A8192399
:102DB00024531B23245319A1001A5B5BA569242407
:102DC000AEAEA8AD29007C00159C6D9CA569295369
:102DD00084133411A56923A0D8625A4826629488C6
:102DE0005444C8546844E89400B4088474B4286E09
:102DF00074F4CC4A72F2A48A00AAA2A27474747207
:102E00004468B232B20022001A1A2626727288C8AA
:102E1000C4CA26484444A2C8854568480A0A0A30FC
:102E2000036CFE0328204CFF68853A68853B6CF0F4
:102E3000032082F820DAFA4C65FFD82084FE202F88
:102E4000FB2093FE2089FEAD58C0AD5AC0AD5DC0D9
:102E5000AD5FC0ADFFCF2C10C0D8203AFFADF3035B
:102E600049A5CDF403D017ADF203D00FA9E0CDF3FF
:102E700003D008A0038CF2034C00E06CF203206046
:102E8000FBA205BDFCFA9DEF03CAD0F7A9C88600D6
:102E90008501A007C601A501C9C0F0D78DF807B10B
:102EA00000D901FBD0EC888810F56C0000EAEA201C
:102EB0008EFDA9458540A9008541A2FBA9A020ED72
:102EC000FDBD1EFA20EDFDA9BD20EDFDB54A20DABD
:102ED000FDE830E86059FA00E04520FF00FF03FFFD
:102EE0003CC1D0D0CCC5A0DDDBC4C2C1FFC3FFFF55
:102EF000FFC1D8D9D0D3AD70C0A000EAEABD64C08C
:102F00001004C8D0F88860A9008548AD56C0AD54FB
:102F1000C0AD51C0A900F00BAD50C0AD53C02036BC
:102F2000F8A9148522A9008520A9288521A918853A
:102F300023A91785254C22FC2058FCA008B908FBC2
:102F4000990E0488D0F760ADF30349A58DF40360B2
:102F5000C98DD018AC00C01013C093D00F2C10C076
:102F6000AC00C010FBC083F0032C10C04CFDFB383C
:102F70004C2CFCA8B948FA2097FB200CFDC9CEB018
:102F8000EEC9C990EAC9CCF0E6D0E8EAEAEAEAEA92
:102F9000EAEAEAEAEAEAEAEAEA484A2903090485A7
:102FA000296829189002697F85280A0A052885283A
:102FB00060C987D012A94020A8FCA0C0A90C20A8F5
:102FC000FCAD30C088D0F560A4249128E624A52467
:102FD000C521B06660C9A0B0EFA810ECC98DF05A49
:102FE000C98AF05AC988D0C9C62410E8A521852409
:102FF000C624A522C525B00BC625A52520C1FB6585
:103000002085286049C0F02869FD90C0F0DA69FD8C
:10301000902CF0DE69FD905CD0E9A424A525482021
:1030200024FC209EFCA000686900C52390F0B0CA73
:10303000A5228525A0008424F0E4A9008524E625A6
:10304000A525C52390B6C625A522482024FCA52881
:10305000852AA529852BA42188686901C523B00D7F
:10306000482024FCB128912A8810F930E1A00020E2
:103070009EFCB086A424A9A09128C8C42190F96020
:103080003848E901D0FC68E901D0F660E642D00298
:10309000E643A53CC53EA53DE53FE63CD002E63D06
:1030A00060A04B20DBFCD0F969FEB0F5A02120DB4D
:1030B000FCC8C888D0FD9005A03288D0FDAC20C0E7
:1030C000A02CCA60A2084820FAFC682AA03ACAD0FC
:1030D000F56020FDFC88AD60C0452F10F8452F85B8
:1030E0002FC08060A424B12848293F094091286856
:1030F0006C3800E64ED002E64F2C00C010F5912847
:10310000AD00C02C10C060200CFD20A5FB200CFDE4
:10311000C99BF0F360A53248A9FF8532BD000220AB
:10312000EDFD688532BD0002C988F01DC998F00A1E
:10313000E0F89003203AFFE8D013A9DC20EDFD2051
:103140008EFDA53320EDFDA2018AF0F3CA2035FDE6
:10315000C995D002B128C9E0900229DF9D0002C9BB
:103160008DD0B2209CFCA98DD05BA43DA63C208EC6
:10317000FD2040F9A000A9AD4CEDFDA53C09078557
:103180003EA53D853FA53C2907D0032092FDA9A07F
:1031900020EDFDB13C20DAFD20BAFC90E8604A90B9
:1031A000EA4A4AA53E900249FF653C48A9BD20ED88
:1031B000FD68484A4A4A4A20E5FD68290F09B0C916
:1031C000BA900269066C3600C9A090022532843597
:1031D000482078FB68A43560C634F09FCAD016C971
:1031E000BAD0BB8531A53E9140E640D002E64160B1
:1031F000A434B9FF01853160A201B53E95429544E2
:10320000CA10F760B13C914220B4FC90F760B13C29
:10321000D142F01C2092FDB13C20DAFDA9A020EDA6
:10322000FDA9A820EDFDB14220DAFDA9A920EDFD00
:1032300020B4FC90D9602075FEA9144820D0F82055
:1032400053F9853A843B6838E901D0EF608AF0078A
:10325000B53C953ACA10F960A03FD002A0FF843275
:1032600060A900853EA238A01BD008A900853EA217
:1032700036A0F0A53E290FF00609C0A000F002A973
:10328000FD9400950160EAEA4C00E04C03E02075F3
:10329000FE203FFF6C3A004CD7FA60EA60EAEAEAA7
:1032A000EAEA4CF803A94020C9FCA027A200413C4F
:1032B00048A13C20EDFE20BAFCA01D6890EEA022A3
:1032C00020EDFEF04DA2100A20D6FCD0FA602000BE
:1032D000FE6868D06C20FAFCA91620C9FC852E2057
:1032E000FAFCA02420FDFCB0F920FDFCA03B20EC62
:1032F000FC813C452E852E20BAFCA03590F020ECB8
:10330000FCC52EF00DA9C520EDFDA9D220EDFD20B4
:10331000EDFDA9874CEDFDA54848A545A646A44767
:10332000286085458646844708688548BA8649D816
:10333000602084FE202FFB2093FE2089FED8203AB7
:10334000FFA9AA85332067FD20C7FF20A7FF84348B
:10335000A0178830E8D9CCFFD0F820BEFFA4344CA9
:1033600073FFA2030A0A0A0A0A263E263FCA10F879
:10337000A531D006B53F953D9541E8F0F3D006A2C2
:1033800000863E863FB90002C849B0C90A90D36999
:1033900088C9FAB0CD60A9FE48B9E3FF48A531A0BD
:1033A00000843160BCB2BEB2EFC4B2A9BBA6A40611
:1033B00095070205F000EB93A7C699B2C9BEC135C7
:1033C0008CC496AF17172B1F837F5DCCB5FC1717E6
:1033D000F503FB0362FA40FA00F00FFF00F00FFF65
:1033E00000F00FFF00F00FFF8001FF181818001801
:1033F000FF1800180018001800306C6C300038609E
:1034000018600000000000067C3078781CFC38FC56
:1034100078780000180060787C30FC3CF8FEFE3CB8
:10342000CC781EE6F0C6C638FC78FC78FCCCCCC65E
:10343000C6CCFE78C07810003000E0001C003800D8
:10344000E0300CE070000000000000001000000000
:103450000000001C18E076AA00F00FFF00F00FFF3C
:1034600000F00FFF00F00FFFE007FF18181800181A
:10347000FF1800180018001800786C6C7CC66C608F
:10348000303066300000000CC670CCCC3CC060CC44
:10349000CCCC3030300030CCC67866666C62626668
:1034A000CC300C6660EEE66C66CC66CCB4CCCCC698
:1034B000C6CCC66060183800300060000C006C009C
:1034C00060000060300000000000000030000000DC
:1034D000000000301830DC5500F00FFF00F00FFF47
:1034E00000F00FFF00F00FFFF81FC3183C18001882
:1034F0007E1800180018001800786CFEC0CC38C088
:1035000060183C3000000018CE300C0C6CF8C00C79
:10351000CCCC303060FC180CDECC66C0666868C06D
:10352000CC300C6C60FEF6C666CC66E030CCCCC607
:103530006CCC8C6030186C00187860780C786076F1
:103540006C700C6630CCF878DC76DC7C7CCCCCC63D
:10355000C6CCFC30183000AA00F00FFF00F00FFFBF
:1035600000F00FFF00F00FFFFE7FC31F3C181F1F6E
:103570007EF8FFFFF8F8FFFF0030006C7818760047
:103580006018FFFC00FC0030DE303838CC0CF81836
:10359000787C0000C0000C18DECC7CC0667878C057
:1035A000FC300C7860FEDEC67CCC7C7030CCCCD697
:1035B000387818601818C600000C7CCC7CCCF0CC95
:1035C00076300C6C30FECCCC66CC76C030CCCCD611
:1035D0006CCC98E0001C005500000000F0F0F0F00A
:1035E0000F0F0F0FFFFFFFFFFE7FC31F7E181F1F70
:1035F0003CF8FFFFF8F8FFFF003000FE0C30DC0065
:1036000060183C3000000060F630600CFE0CCC30DE
:10361000CC0C000060001830DEFC66C0666868CE26
:10362000CC30CC6C62D6CEC660DC6C1C30CCCCFE10
:10363000383032600C180000007C66C0CCFC60CCD6
:1036400066300C7830FECCCC66CC667830CCCCFEC4
:1036500038CC3030183000AA00000000F0F0F0F054
:103660000F0F0F0FFFFFFFFFF81FC3007E18181882
:103670003C000000181818180000006CF866CC0018
:1036800030306630300030C0E630CCCC0CCCCC30A2
:10369000CC18303030FC3000C0CC66666C6260669E
:1036A000CC30CC6666C6C66C607866CC30CC78EE22
:1036B0006C3066600618000000CC66CCCCC0607C24
:1036C0006630CC6C30D6CCCC7C7C600C34CC78FEB4
:1036D0006C7C64301830005500000000F0F0F0F011
:1036E0000F0F0F0FFFFFFFFFE007FF00FF18181875
:1036F00018000000181818180030006C30C676004A
:1037000018600000300030807CFCFC781E78783037
:10371000787030301800603078CCFC3CF8FEF03E19
:10372000CC7878E6FEC6C638F01CE67878FC30C661
:10373000C678FE78027800000076DC787678F00CA7
:10374000E678CCE678C6CC78600CF0F81876306C69
:10375000C60CFC1C18E000AA00000000F0F0F0F01D
:103760000F0F0F0FFFFFFFFF8001FF00FF1818185A
:1037700018000000181818180000000000000000D1
:1037800000000000600000000000000000000000D9
:1037900000000060000000000000000000000000C9
:1037A0000000000000000000000000000000000019
:1037B00000000000000000FF00000000000000F812
:1037C0000000780000000000F01E00000000000073
:1037D00000F80000000000550108000000ABBB002D
:1037E00001A6B20000A3B3000AA9000000ACBC000F
:1037F00001A5000000A4B40003A800002BABBB008F
:1038000001A6B20023A3B3000AA9000000ACBC00CB
:1038100001A5000000A4B40001A8000000ABBB009B
:1038200001A6B20003A3B3000AA9000000ACBC00CB
:1038300001A5000000A4B40001F8000000FBBB00DB
:10384000A1F6B20007F3B3000AF9000000FCBC00C7
:1038500001F5000000F4B400000800000B0B0B00A1
:10386000A100A100030303000A0900000C0C0D00D5
:10387000A105010000040000A6A8A600ABABAB00A8
:10388000A1A6A100A3A3A3000AA90000ACACAD00AF
:1038900001A5A100A4A4A500B6B80000BBBBAB0065
:1038A000A1B6A100B3B3A3000AB9000000BCAC00EC
:1038B00001B5000000B4A400B6F80000BBFBAB00EB
:1038C000A1F60100B3F3A3000AF9000000FCAC006C
:1038D00001F5000000F4A4000000220025002800EB
:1038E0002B002E0031003400020100000501080108
:1038F0000B0100002100240027002A002D003000C9
:10390000330001010000040107010A010505050556
:10391000070508080808020202020A0A0808040447
:103920000404010101010101010103030303030375
:103930000303040707070C0C0C0C0C0C0C0C020204
:10394000020206060606060606060B0B0B0B0B0B01
:103950000B0B01021020200808102040102040808E
:103960000201020108040201010204081020408043
:1039700080402010080402018004020180402010D1
:10398000080402010804020101020408102040801A
:103990000102040810204080CF2811241FBECFEF61
:1039A000D1E2DEBFCDBF00E00CBF1AE0A0E0B2E084
:1039B000ECE0F2E500E00BBF02C007900D92A832E8
:1039C000B107D9F725E1A8E2BAE001C01D92A23003
:1039D000B207E1F71CE1CDECDCE100E006C0219785
:1039E0000109802FFE010E94FC28CC3CD10780E019
:1039F0000807A9F70E9483230C9404290C94000063
:103A0000CF93DF9390E0FC01EE5AF64C2491845F53
:103A1000964CFC0184918823C1F090E0880F991F97
:103A2000FC01EE50F74CC591D491FC01E852F74CE3
:103A3000A591B4919FB7F8943881822F8095832304
:103A40008883EC91E22BEC939FBFDF91CF91089597
:103A50000895AF92BF92CF92DF92EF92FF920F93B1
:103A60001F93CF93DF936C017B018B01040F151F14
:103A7000EB015E01AE18BF08C017D10759F069917C
:103A8000D601ED91FC910190F081E02DC6011995D0
:103A9000892B79F7C501DF91CF911F910F91FF908D
:103AA000EF90DF90CF90BF90AF900895FC01538DC1
:103AB000448D252F30E0842F90E0821B930B541708
:103AC00010F0CF96089501970895FC01918D828D95
:103AD000981761F0A28DAE0FBF2FB11D5D968C912E
:103AE000928D9F5F9F73928F90E008958FEF9FEF6D
:103AF0000895FC01918D828D981731F0828DE80F29
:103B0000F11D858D90E008958FEF9FEF0895FC01E2
:103B1000918D228D892F90E0805C9F4F821B9109AF
:103B20008F73992708958EE494E10E94871D21E008
:103B3000892B09F420E0822F0895FC01A48DA80FA1
:103B4000B92FB11DA35ABF4F2C91848D90E00196DF
:103B50008F739927848FA689B7892C93A089B189FF
:103B60008C91837080648C93938D848D981306C0A0
:103B70000288F389E02D80818F7D80830895EF9204
:103B8000FF920F931F93CF93DF93EC0181E0888F17
:103B90009B8D8C8D98131AC0E889F989808185FFE7
:103BA00015C09FB7F894EE89FF896083E889F98989
:103BB00080818370806480839FBF81E090E0DF918B
:103BC000CF911F910F91FF90EF900895F62E0B8DDE
:103BD00010E00F5F1F4F0F731127E02E8C8D8E1199
:103BE0000CC00FB607FCFACFE889F989808185FF00
:103BF000F5CFCE010E949D1DF1CFEB8DEC0FFD2F77
:103C0000F11DE35AFF4FF0829FB7F8940B8FEA89BA
:103C1000FB8980818062CFCFCF93DF93EC01888DC9
:103C20008823B9F0AA89BB89E889F9898C9185FD37
:103C300003C0808186FD0DC00FB607FCF7CF8C91C5
:103C400085FFF2CF808185FFEDCFCE010E949D1DC3
:103C5000E9CFDF91CF91089580E090E0892B49F082
:103C600080E090E0892B29F00E94000081110E94E1
:103C7000000080E090E0892B29F00E94931D8111C3
:103C80000E94000080E090E0892B49F080E090E005
:103C9000892B29F00E94000081110E94000080E021
:103CA00090E0892B49F080E090E0892B29F00E9478
:103CB000000081110C94000008951092C60088E065
:103CC0008093C10030910202209103028091C000D4
:103CD00085FFFCCF1092C60080914D1440E8849F70
:103CE000C001112488529C4C4091C00045FFFCCF7C
:103CF0001092C6004091C00045FFFCCF1092C60054
:103D00004091C00045FFFCCF1092C6004091C0001A
:103D100045FFFCCF1092C600A32FB22F29E22150FD
:103D200051F03D91FC01E30FF11D37FDFA95E4914F
:103D3000E093C600F4CF8091C00086FFFCCF1092C4
:103D4000C10080914D148F5F883019F080934D141D
:103D5000089510924D1480914B1490914C14863E0E
:103D6000910569F484E080936F0089EC9EE1909363
:103D700001028093000281E080934A1408958091AB
:103D800002029091030288969093030280930202AC
:103D9000089580914B1490914C148330910539F41F
:103DA0008AE490E090938900809388000895863299
:103DB000910581F486E080936F008AE490E190930E
:103DC0000302809302028DE59EE1909301028093AD
:103DD000000208958730914054F08CEA93E090936C
:103DE00089008093880010924C1410924B1408950F
:103DF000943020F48E5C934FFC010FC02CEF290F00
:103E0000243068F4880F991FFC01EA5EF5400190A8
:103E1000F081E02DE65BFF4E6F776083089528EF19
:103E2000290F283018F48E5C9D4FE6CF8031904CDE
:103E300029F48091310A8F778093310A0895943064
:103E400020F48E5C934FFC010EC03CEF390F3430F0
:103E500060F4880F991FFC01EA5EF5400190F08143
:103E6000E02DE65BFF4E8081089538EF390F383042
:103E700018F48E5C9D4FE7CF903D28F088529C4C03
:103E8000FC01849108958115F0EC9F0719F480914D
:103E9000310A08958031904C29F48091310A8F774E
:103EA0008093310A80E008951F93CF93DF93EC0154
:103EB0000E941F1F182FCE0101960E941F1F982FCE
:103EC000812FDF91CF911F910895E7E9F2E084916E
:103ED000E7E5F9E34491E1E1F9E3949120912F0AB8
:103EE0003091300A992309F43BC0882311F18150A5
:103EF0008231F8F4E82FF0E08827EE57F04E8F4F2C
:103F00000C94FC28F41FF81F941FEC1FF01F991F3E
:103F1000FB1F012005200B200F20132019201D203E
:103F2000991F212027202B20809180008F7780935C
:103F30008000E92FF0E0EE0FFF1FE858FD4FA5913C
:103F4000B491EC9150912A0A81E090E002C0880F70
:103F5000991F5A95E2F74E23822B932B41110DC0E6
:103F600040912A0A81E090E002C0880F991F4A958B
:103F7000E2F780959095822393239093300A809363
:103F80002F0A80912A0A8F5F80932A0A8B3019F5B5
:103F900020912F0A3091300A36952795C90199272B
:103FA0009093300A80932F0A2F7E332740912D0A59
:103FB00050912E0A203E310509F051C021E0209396
:103FC000290A50932C0A40932B0A90932E0A80932F
:103FD0002D0A10922A0A0895809180008F7DA7CF24
:103FE00080918000877FA3CF84B58F7784BDA1CFD8
:103FF00084B58F7DFBCF8091B0008F778093B00028
:1040000098CF8091B0008F7DF9CF809190008F770D
:10401000809390008ECF809190008F7DF9CF80911A
:104020009000877FF5CF8091A0008F778093A000CC
:1040300080CF8091A0008F7DF9CF8091A000877FF5
:10404000F5CF809120018F778093200172CF8091EE
:1040500020018F7DF9CF80912001877FF5CF2091BE
:10406000290A222319F021502093290A2091290A94
:104070002111A7CF9A012F7E203E3105D1F0823148
:10408000910519F08935910521F421E02093280A42
:1040900098CF2091280AE0E8F0E0211102C0F0E07A
:1040A000E0E0E80FF91FE852FD4FE491E093310A98
:1040B00088CF20912B0A30912C0A203F3105E9F05E
:1040C000403E5105D1F425E98B36910521F0843726
:1040D000910521F428E82093310A73CF87339105A5
:1040E00009F06FCF88E198E00FB6F894A895809317
:1040F00060000FBE90936000FFCF403F510509F074
:1041000060CF8231910521F08935910509F059CFB1
:104110001092280A56CF809115028F5F8093150266
:1041200090E093950C941F1FCF93DF93C0911502DD
:1041300081E08C0F90E093950E941F1FD82FCE5FD7
:10414000C09315028C2F90E093950E941F1F982F0B
:104150008D2F9093F0148093EF14DF91CF910895F9
:10416000209115029FEF920F9093150230E0682F77
:10417000C90193950C94F81ECF93DF93D82F692F24
:10418000C09115028C2F90E093950E94F81E8EEF3F
:104190008C0F80931502C1508C2F90E06D2F93955A
:1041A000DF91CF910C94F81E9091F514892F807FA8
:1041B000803A09F454C008F049C0803209F45DC067
:1041C000803309F456C097FF08C02091EC14207882
:1041D00080911402822B8093140295FF0BC0809172
:1041E000EC1420E0811101C022E080911402822BA6
:1041F0008093140294FF0EC02091EC143091ED14C2
:10420000222741E0232B09F440E080911402842B03
:104210008093140296FF19C02091EC143091ED1494
:104220008091EE14A9014827CA014091EF145091E2
:10423000F01424273527822393239695879580743D
:1042400090911402892B809314020895803B69F0A9
:10425000803F09F0B8CF809114028C7303C0809125
:1042600014028D7780931402AECF809114028C7764
:10427000F9CF809114028C7FF5CF809114028D7F4D
:10428000F1CF1F920F920FB60F9211242F933F93ED
:104290008F939F93AF93BF938091FE149091FF14DF
:1042A000A0910015B09101153091FD1423E0230F6A
:1042B0002D3758F50196A11DB11D2093FD14809353
:1042C000FE149093FF14A0930015B09301158091F4
:1042D000F9149091FA14A091FB14B091FC1401967A
:1042E000A11DB11D8093F9149093FA14A093FB14AF
:1042F000B093FC14BF91AF919F918F913F912F91FB
:104300000F900FBE0F901F90189526E8230F02966E
:10431000A11DB11DD2CF1F920F920FB60F92112483
:104320000BB60F922F933F934F935F936F937F93AF
:104330008F939F93AF93BF93EF93FF93E0911202FC
:10434000F09113021995FF91EF91BF91AF919F9159
:104350008F917F916F915F914F913F912F910F902E
:104360000BBE0F900FBE0F901F9018951F920F92CB
:104370000FB60F9211240BB60F922F933F934F93CA
:104380005F936F937F938F939F93AF93BF93EF93BD
:10439000FF93E0911002F09111021995FF91EF91B6
:1043A000BF91AF919F918F917F916F915F914F914D
:1043B0003F912F910F900BBE0F900FBE0F901F904B
:1043C00018951F920F920FB60F9211240BB60F92F1
:1043D0002F933F934F935F936F937F938F939F930D
:1043E000AF93BF93EF93FF93E0910602F091070222
:1043F0001995FF91EF91BF91AF919F918F917F910F
:104400006F915F914F913F912F910F900BBE0F9045
:104410000FBE0F901F9018951F920F920FB60F921C
:1044200011240BB60F922F933F934F935F936F938B
:104430007F938F939F93AF93BF93EF93FF93E091FD
:104440000402F09105021995FF91EF91BF91AF9190
:104450009F918F917F916F915F914F913F912F919C
:104460000F900BBE0F900FBE0F901F9018951F92CC
:104470000F920FB60F9211240BB60F922F933F930A
:104480004F935F936F937F938F939F93AF93BF935C
:10449000EF93FF93E0910E02F0910F021995FF91B7
:1044A000EF91BF91AF919F918F917F916F915F91AC
:1044B0004F913F912F910F900BBE0F900FBE0F9019
:1044C0001F9018951F920F920FB60F9211240BB6E2
:1044D0000F922F933F934F935F936F937F938F939D
:1044E0009F93AF93BF93EF93FF93E0910C02F091F2
:1044F0000D021995FF91EF91BF91AF919F918F910F
:104500007F916F915F914F913F912F910F900BBED3
:104510000F900FBE0F901F9018951F920F920FB61D
:104520000F9211240BB60F922F933F934F935F93EB
:104530006F937F938F939F93AF93BF93EF93FF936B
:10454000E0910A02F0910B021995FF91EF91BF9152
:10455000AF919F918F917F916F915F914F913F911B
:104560002F910F900BBE0F900FBE0F901F901895BC
:104570001F920F920FB60F9211240BB60F922F932A
:104580003F934F935F936F937F938F939F93AF93DB
:10459000BF93EF93FF93E0910802F0910902199500
:1045A000FF91EF91BF91AF919F918F917F916F910B
:1045B0005F914F913F912F910F900BBE0F900FBEC7
:1045C0000F901F9018951F920F920FB60F92112403
:1045D0000BB60F922F933F934F935F936F937F93FD
:1045E0008F939F93AF93BF93EF93FF938EE494E1E8
:1045F0000E949D1DFF91EF91BF91AF919F918F916F
:104600007F916F915F914F913F912F910F900BBED2
:104610000F900FBE0F901F9018951F920F920FB61C
:104620000F9211240BB60F922F938F939F93EF93BA
:10463000FF93E0915E14F0915F148081E091641427
:10464000F091651482FD1DC09081809167148F5F89
:104650008F7320916814821741F0E0916714F0E0A5
:10466000E25BFB4E958F80936714FF91EF919F91D2
:104670008F912F910F900BBE0F900FBE0F901F9038
:1046800018958081F2CF1F920F920FB60F921124CE
:104690000BB60F922F933F934F935F936F937F933C
:1046A0008F939F93AF93BF93EF93FF93E09100029B
:1046B000F0910102199580914B1490914C14019640
:1046C00090934C1480934B14FF91EF91BF91AF9155
:1046D0009F918F917F916F915F914F913F912F911A
:1046E0000F900BBE0F900FBE0F901F9018951F924A
:1046F0000F920FB60F921124789488950F900FBEE9
:104700000F901F901895789484B5826084BD84B50D
:10471000816084BD85B5826085BD85B5816085BDBC
:1047200080916E00816080936E0010928100809174
:1047300081008260809381008091810081608093FC
:104740008100809180008160809380008091B10021
:1047500084608093B1008091B00081608093B0004C
:10476000809191008260809391008091910081609E
:10477000809391008091900081608093900080915F
:10478000A10082608093A1008091A100816080934C
:10479000A1008091A00081608093A0008091210100
:1047A00082608093210180912101816080932101A9
:1047B0008091200181608093200180917A00846043
:1047C00080937A0080917A00826080937A00809151
:1047D0007A00816080937A0080917A00806880936B
:1047E0007A001092C100E0915E14F0915F1482E0B3
:1047F0008083E0915A14F0915B141082E0915C1474
:10480000F0915D1480E1808310926614E09162144F
:10481000F091631486E08083E0916014F09161145C
:10482000808180618083E0916014F09161148081C7
:1048300088608083E0916014F091611480818068C9
:104840008083E0916014F091611480818F7D80837A
:10485000F8941092C5001092C400549A80EC809392
:10486000C200519A259A71982D9A82EC809380000B
:1048700089E18093810087EF93E090938700809394
:1048800086008AE490E0909389008093880080E716
:1048900090E090938B0080938A0084E080936F0077
:1048A00010926E0081E083BF789483E00E94001D27
:1048B00085E00E94001D85E69FE1909307028093AA
:1048C000060280916A00837F886080936A00ED9A77
:1048D00078948CEF9FEF0E94541F9093F81480936C
:1048E000F7148DEF8093150288248A94982CC09138
:1048F000F714D091F8148E010F5F1F4F1093F81426
:104900000093F714CE010E941F1F782E8093F61497
:10491000A82EB12CF501E852F84CE491E093F5147F
:10492000EF70E150ED30C0F4F0E08827E556FB4D24
:104930008F4F0C94FC28A824A824B625C325CB258A
:10494000D125DB25F12511262F2643264D26592674
:104950009092F4148092F3142EEF271508F4C7CF29
:10496000F5018827E954FB4D8F4F0C94FC28022752
:1049700009287724772477240928A32677241A285E
:1049800009289126772477240928A3267724FD2651
:1049900009287724772477240928A3267724212738
:1049A00009287724772477240928A3267724C42785
:1049B0007D2677247724DD267D2638287724222833
:1049C0007D2626287724DD267D2638287724F8269C
:1049D0007D267724772477247D2638287724A228FB
:1049E0007D267724772477247D26382877247F280E
:1049F00090277724772477249027F9277724152880
:104A00009027E7277724CB279027F92777241727A4
:104A100090277724772477249027F927772429274C
:104A200090277724772477249027F92777248628DE
:104A300064267724772477246426652877241E2823
:104A4000642650287724CB276426652877241C27E2
:104A50006426772477247724642665287724AA2877
:104A6000642677247724772464266528772477249E
:104A7000AE2877247724B828AE28B528772489274C
:104A80007724C4287724B828AE28B5287724BB26F5
:104A9000AE2877247724B828AE28B5287724CC28E8
:104AA000AE28C72877247724AE2877247724E027F8
:104AB000D027D9277724E027D027D9277724BE28E5
:104AC000D027BB287724E027D027D9277724CE26E4
:104AD000D02777247724E027D027D92777242D27BC
:104AE000D027C1287724E027D027D9277724592732
:104AF0003127772477245927312769277724C0273E
:104B00003127832777245927312769277724D82607
:104B1000312777247724772431276927772425279D
:104B20003127772477247724312769277724492769
:104B30008A287724772449278A28A6277724BC2720
:104B40008A287724772449278A28A6277724D326FA
:104B50008A287724772477248A28A6277724A628EA
:104B60008A287724772477248A28A627C8010E94D8
:104B7000541F9093F4148093F3142396D093F81455
:104B8000C093F714E9CEC8010E94541F2091F2147B
:104B9000820F911DEECFC8010E94541F2091F11485
:104BA000F7CF2296D093F814C093F7141093F4140F
:104BB0000093F314D1CEC8010E94541F9C012F5FB3
:104BC0003F4F8C010027022B1093F0140093EF1439
:104BD0000E941F1F682EC8010E941F1F982F862D3C
:104BE000C8CF2296D093F814C093F714C8010E943E
:104BF0001F1F9091F214890F90E0EC012196DD27A0
:104C0000D093F014C093EF140E941F1F182FCE01F1
:104C10000E941F1F982F812F9093F4148093F314F8
:104C20009BCE2296D093F814C093F714C8010E942B
:104C30001F1F90E0EC012196DD27D093F014C09364
:104C4000EF140E941F1F182FCE010E941F1F382F24
:104C5000212F8091F114820F932F911DDDCF229689
:104C6000D093F814C093F714C8010E941F1F282F77
:104C700030E087FD05C090E080E0822B932BCCCF05
:104C800080E09FEFFACF2296D093F814C093F714E8
:104C9000C8010E941F1F90E0BFCF2296D093F81446
:104CA000C093F714C8010E941F1F9091F214890F3E
:104CB000F2CF2296D093F814C093F714C8010E9443
:104CC0001F1F9091F114F3CF8091F3149091F4147D
:104CD0000E941F1F90E09093F0148093EF14209196
:104CE000140220FB222420F8312CC091EE14C20DB6
:104CF000D32DD11DC80FD91F73C18091F31490918A
:104D0000F4140E941F1F9091EE148923282F30E085
:104D10003093ED142093EC148093EE140E94D42071
:104D2000E6CDC091EE14D0E0D093F014C093EF1410
:104D3000CC0FDD1FD093ED14C093EC140E94D4204F
:104D4000C093EE14D4CD0091F3141091F414C80163
:104D50000E941F1FC82FD0E0D093F014C093EF140F
:104D6000CC0FDD1FD093ED14C093EC140E94D4201F
:104D70006C2FC801C5C08091140280FDB8CD809110
:104D8000F7149091F8142091F3143091F414820FD9
:104D9000931F9093F8148093F714A9CD8091140277
:104DA00080FDEDCFA4CD8091140281FDE8CF9FCD91
:104DB0008091140281FFE3CF9ACD8091F3149091FA
:104DC000F4140E941F1FC82F8093EB148091EE14DF
:104DD0008C2390E09093ED148093EC140E94D420E7
:104DE000809114028F73C07C8C2B809314027FCD32
:104DF0008091140287FF7BCDC2CF8091140287FF80
:104E0000BECF75CD8091F7149091F81401960E9451
:104E1000BC20C09114028C2F80610E94B020C4601D
:104E2000C09314028EEF9FEF0E94541FB2CF809167
:104E3000140286FFA4CF5BCD8091140286FD9FCF24
:104E400056CD809114028E7FD0CF80911402877F3F
:104E5000CCCF809114028B7FC8CF809114028F7BBE
:104E6000C4CF8091F3149091F4140E941F1F809579
:104E7000282F30E03093F0142093EF148091EE143B
:104E800090E00196820F931F9093ED148093EC14A1
:104E900045CF8091F3149091F4140E941F1F8095C8
:104EA000282F30E03093F0142093EF148091F21407
:104EB000E7CF8091F3149091F4140E941F1F809506
:104EC000282F30E03093F0142093EF148091F114E8
:104ED000D7CFC091F314D091F414CE010E941F1FBC
:104EE000182F90E09093F0148093EF140197909313
:104EF000ED148093EC140E94D4206FEF610FCE016B
:104F00000E94F81EF4CC8091F21481508093F21428
:104F100005C08091F11481508093F11490E0B4CFDA
:104F20008091F3149091F4140E941F1F8093EB144E
:104F3000C091EE14C8278C2F90E09093ED148093CD
:104F4000EC140E94D420C093EE14D1CCC091F31481
:104F5000D091F414CE010E941F1F182F90E090935F
:104F6000F0148093EF1401969093ED148093EC1459
:104F70000E94D42061E0C2CF8091F2148F5FC6CF2F
:104F80008091F1148F5FC8CF8091F7149091F8143D
:104F900001970E94BC208091F3149091F414F9CEF3
:104FA0008091F3149091F4140E941F1F8093EE14CB
:104FB000B5CF8091F3149091F4140E941F1FA6CFD7
:104FC0008091F3149091F4140E941F1FA5CFC091FB
:104FD000EE14C093EB14D0E0C0FBD795C795D7F97A
:104FE000D093ED14C093EC140E94D420C093EE141F
:104FF0007ECC0091F3141091F414C8010E941F1F7D
:105000008093EB14C82FD0E0C0FBD795C795D7F994
:10501000A9CE8091F3149091F4140E941F1F8093E5
:10502000EB14C091EE14C82B86CF8091EE140E9431
:10503000B0205DCC809114028061F9CF0E948B205A
:10504000C82F79CF0E948B208062CFCEC091EE1402
:10505000D0E0D093F014C093EF148091140280FB41
:10506000442440F8512CCC0FDD1FC429D52962CE31
:105070000091F3141091F414C8010E941F1FC82F4F
:10508000D0E0D093F014C093EF148091140280FB11
:10509000EE24E0F8F12CCC0FDD1FCE29DF2962CE03
:1050A0008091EE1490E09093F0148093EF14C091EF
:1050B000140220E8C29FE0011124DD2780FB9795B0
:1050C000879597F9C82BD92B8BCF0091F3141091AA
:1050D000F414C8010E941F1F90E09093F014809375
:1050E000EF14C091140220E8C29FE0011124DD27D3
:1050F00080FB9795879597F9C82BD92B33CE0E94C3
:105100008B20809314020E94942043CE0E9494200E
:1051100001963FCE8091F3149091F4140E941F1FCA
:10512000809590E09093F0148093EF1420911402F6
:1051300020FBCC24C0F8D12CC091EE14CC0DDD2D79
:10514000D11DD8CD8091140281604FCE8091140280
:1051500088604BCE80911402846047CE6091EE143B
:105160008091F3149091F414CBCE6091F214F8CFA7
:105170006091F114F5CF8091EE14C8CE8091EE14B9
:10518000CBCE80911502C2CE8091F2140FCF8091C8
:10519000F21480931502C2CE8091F11407CFEEE491
:1051A000F4E11382128288EE93E0A0E0B0E0848301
:1051B0009583A683B7838AE19AE0918380838DECFF
:1051C00090E0958784878CEC90E09787868788ECC1
:1051D00090E0918B808B89EC90E0938B828B8AECB2
:1051E00090E0958B848B8EEC90E0978B868B118E64
:1051F000128E138E148E0895EE0FFF1F881F8BBF23
:105200000790F691E02D1994F894FFCFC91E4A102B
:10521000281D281D281D281D281D281D281D281D66
:1052200020FD00000100020003000400050006004C
:105230000700080009000A000B000C000D000E001A
:105240000F001000110012001300140015001600CA
:105250001700180019001A001B001C001D001E007A
:105260001F0020002100220023002400250026002A
:10527000270040014101420143014401450146012B
:105280004701480149014A014B014C014D014E01C2
:105290004F01500151015201530154015501560172
:1052A0005701580159015A015B015C015D015E0122
:1052B0005F016001610162016301640165016601D2
:1052C00067018002810282028302840285028602D3
:1052D0008702880289028A028B028C028D028E026A
:1052E0008F0290029102920293029402950296021A
:1052F0009702980299029A029B029C029D029E02CA
:105300009F02A002A102A202A302A402A502A60279
:10531000A7020000000000000000000000000000E4
:105320000000280029002A002B002C002D002E0050
:105330002F003000310032003300340035003600D9
:105340003700380039003A003B003C003D003E0089
:105350003F00400041004200430044004500460039
:105360004700480049004A004B004C004D004E00E9
:105370004F00680169016A016B016C016D016E01EA
:105380006F01700171017201730174017501760181
:105390007701780179017A017B017C017D017E0131
:1053A0007F018001810182018301840185018601E1
:1053B0008701880189018A018B018C018D018E0191
:1053C0008F01A802A902AA02AB02AC02AD02AE0292
:1053D000AF02B002B102B202B302B402B502B60229
:1053E000B702B802B902BA02BB02BC02BD02BE02D9
:1053F000BF02C002C102C202C302C402C502C60289
:10540000C702C802C902CA02CB02CC02CD02CE0238
:10541000CF020000000000000000000000000000BB
:105420000000500051005200530054005500560037
:105430005700580059005A005B005C005D005E0098
:105440005F00600061006200630064006500660048
:105450006700680069006A006B006C006D006E00F8
:105460006F007000710072007300740075007600A8
:1054700077009001910192019301940195019601A9
:105480009701980199019A019B019C019D019E0140
:105490009F01A001A101A201A301A401A501A601F0
:1054A000A701A801A901AA01AB01AC01AD01AE01A0
:1054B000AF01B001B101B201B301B401B501B60150
:1054C000B701D002D102D202D302D402D502D60251
:1054D000D702D802D902DA02DB02DC02DD02DE02E8
:1054E000DF02E002E102E202E302E402E502E60298
:1054F000E702E802E902EA02EB02EC02ED02EE0248
:10550000EF02F002F102F202F302F402F502F602F7
:10551000F702000000000000000000000000000092
:105520000000780079007A007B007C007D007E001E
:105530007F00800081008200830084008500860057
:105540008700880089008A008B008C008D008E0007
:105550008F009000910092009300940095009600B7
:105560009700980099009A009B009C009D009E0067
:105570009F00B801B901BA01BB01BC01BD01BE0168
:10558000BF01C001C101C201C301C401C501C601FF
:10559000C701C801C901CA01CB01CC01CD01CE01AF
:1055A000CF01D001D101D201D301D401D501D6015F
:1055B000D701D801D901DA01DB01DC01DD01DE010F
:1055C000DF01F802F902FA02FB02FC02FD02FE0210
:1055D000FF020003010302030303040305030603A0
:1055E0000703080309030A030B030C030D030E034F
:1055F0000F031003110312031303140315031603FF
:105600001703180319031A031B031C031D031E03AE
:105610001F03000000000000000000000000000068
:105620000000A000A100A200A300A400A500A60005
:10563000A700A800A900AA00AB00AC00AD00AE0016
:10564000AF00B000B100B200B300B400B500B600C6
:10565000B700B800B900BA00BB00BC00BD00BE0076
:10566000BF00C000C100C200C300C400C500C60026
:10567000C700E001E101E201E301E401E501E60127
:10568000E701E801E901EA01EB01EC01ED01EE01BE
:10569000EF01F001F101F201F301F401F501F6016E
:1056A000F701F801F901FA01FB01FC01FD01FE011E
:1056B000FF010002010202020302040205020602C7
:1056C00007022003210322032303240325032603C7
:1056D0002703280329032A032B032C032D032E035E
:1056E0002F0330033103320333033403350336030E
:1056F0003703380339033A033B033C033D033E03BE
:105700003F0340034103420343034403450346036D
:10571000470300000000000000000000000000003F
:105720000000C800C900CA00CB00CC00CD00CE00EC
:10573000CF00D000D100D200D300D400D500D600D5
:10574000D700D800D900DA00DB00DC00DD00DE0085
:10575000DF00E000E100E200E300E400E500E60035
:10576000E700E800E900EA00EB00EC00ED00EE00E5
:10577000EF00080209020A020B020C020D020E02DF
:105780000F02100211021202130214021502160275
:105790001702180219021A021B021C021D021E0225
:1057A0001F022002210222022302240225022602D5
:1057B0002702280229022A022B022C022D022E0285
:1057C0002F02480349034A034B034C034D034E0386
:1057D0004F0350035103520353035403550356031D
:1057E0005703580359035A035B035C035D035E03CD
:1057F0005F0360036103620363036403650366037D
:105800006703680369036A036B036C036D036E032C
:105810006F03000000000000000000000000000016
:105820000000F000F100F200F300F400F500F600D3
:10583000F700F800F900FA00FB00FC00FD00FE0094
:10584000FF0000010101020103010401050106013D
:105850000701080109010A010B010C010D010E01EC
:105860000F0110011101120113011401150116019C
:10587000170130023102320233023402350236029D
:105880003702380239023A023B023C023D023E0234
:105890003F024002410242024302440245024602E4
:1058A0004702480249024A024B024C024D024E0294
:1058B0004F02500251025202530254025502560244
:1058C0005702700371037203730374037503760345
:1058D0007703780379037A037B037C037D037E03DC
:1058E0007F0380038103820383038403850386038C
:1058F0008703880389038A038B038C038D038E033C
:105900008F039003910392039303940395039603EB
:1059100097030000000000000000000000000000ED
:105920000000180119011A011B011C011D011E01B3
:105930001F0120012101220123012401250126014B
:105940002701280129012A012B012C012D012E01FB
:105950002F013001310132013301340135013601AB
:105960003701380139013A013B013C013D013E015B
:105970003F01580259025A025B025C025D025E025C
:105980005F026002610262026302640265026602F3
:105990006702680269026A026B026C026D026E02A3
:1059A0006F02700271027202730274027502760253
:1059B0007702780279027A027B027C027D027E0203
:1059C0007F02980399039A039B039C039D039E0304
:1059D0009F03A003A103A203A303A403A503A6039B
:1059E000A703A803A903AA03AB03AC03AD03AE034B
:1059F000AF03B003B103B203B303B403B503B603FB
:105A0000B703B803B903BA03BB03BC03BD03BE03AA
:105A1000BF030000000000000000000000000000C4
:105A2000000000000000BF1D291D561D0C1E871D13
:045A3000651D791D5A
:020000040003F7
:10E000000D9489F10D94B2F10D94B2F10D94B2F129
:10E010000D94B2F10D94B2F10D94B2F10D94B2F1F0
:10E020000D94B2F10D94B2F10D94B2F10D94B2F1E0
:10E030000D94B2F10D94B2F10D94B2F10D94B2F1D0
:10E040000D94B2F10D94B2F10D94B2F10D94B2F1C0
:10E050000D94B2F10D94B2F10D94B2F10D94B2F1B0
:10E060000D94B2F10D94B2F10D94B2F10D94B2F1A0
:10E070000D94B2F10D94B2F10D94B2F10D94B2F190
:10E080000D94B2F10D94B2F10D94B2F10D94B2F180
:10E090000D94B2F10D94B2F10D94B2F10D94B2F170
